{
  "contractName": "DAO",
  "abi": [
    {
      "anonymous": false,
      "inputs": [
        {
          "indexed": true,
          "internalType": "address",
          "name": "previousOwner",
          "type": "address"
        },
        {
          "indexed": true,
          "internalType": "address",
          "name": "newOwner",
          "type": "address"
        }
      ],
      "name": "OwnershipTransferred",
      "type": "event"
    },
    {
      "inputs": [
        {
          "internalType": "address",
          "name": "",
          "type": "address"
        },
        {
          "internalType": "address",
          "name": "",
          "type": "address"
        }
      ],
      "name": "absDistribution",
      "outputs": [
        {
          "internalType": "uint256",
          "name": "",
          "type": "uint256"
        }
      ],
      "stateMutability": "view",
      "type": "function"
    },
    {
      "inputs": [
        {
          "internalType": "address",
          "name": "",
          "type": "address"
        },
        {
          "internalType": "address",
          "name": "",
          "type": "address"
        }
      ],
      "name": "finalDistribution",
      "outputs": [
        {
          "internalType": "uint256",
          "name": "",
          "type": "uint256"
        }
      ],
      "stateMutability": "view",
      "type": "function"
    },
    {
      "inputs": [
        {
          "internalType": "address",
          "name": "",
          "type": "address"
        }
      ],
      "name": "isDistributed",
      "outputs": [
        {
          "internalType": "bool",
          "name": "",
          "type": "bool"
        }
      ],
      "stateMutability": "view",
      "type": "function"
    },
    {
      "inputs": [
        {
          "internalType": "address",
          "name": "",
          "type": "address"
        },
        {
          "internalType": "uint256",
          "name": "",
          "type": "uint256"
        }
      ],
      "name": "listAbsDistribution",
      "outputs": [
        {
          "internalType": "address",
          "name": "",
          "type": "address"
        }
      ],
      "stateMutability": "view",
      "type": "function"
    },
    {
      "inputs": [
        {
          "internalType": "address",
          "name": "",
          "type": "address"
        },
        {
          "internalType": "uint256",
          "name": "",
          "type": "uint256"
        }
      ],
      "name": "listRelDistribution",
      "outputs": [
        {
          "internalType": "address",
          "name": "",
          "type": "address"
        }
      ],
      "stateMutability": "view",
      "type": "function"
    },
    {
      "inputs": [],
      "name": "owner",
      "outputs": [
        {
          "internalType": "address",
          "name": "",
          "type": "address"
        }
      ],
      "stateMutability": "view",
      "type": "function"
    },
    {
      "inputs": [
        {
          "internalType": "address",
          "name": "",
          "type": "address"
        },
        {
          "internalType": "address",
          "name": "",
          "type": "address"
        }
      ],
      "name": "relDistribution",
      "outputs": [
        {
          "internalType": "uint256",
          "name": "",
          "type": "uint256"
        }
      ],
      "stateMutability": "view",
      "type": "function"
    },
    {
      "inputs": [],
      "name": "renounceOwnership",
      "outputs": [],
      "stateMutability": "nonpayable",
      "type": "function"
    },
    {
      "inputs": [
        {
          "internalType": "address",
          "name": "",
          "type": "address"
        }
      ],
      "name": "tokenIsListed",
      "outputs": [
        {
          "internalType": "bool",
          "name": "",
          "type": "bool"
        }
      ],
      "stateMutability": "view",
      "type": "function"
    },
    {
      "inputs": [
        {
          "internalType": "address",
          "name": "",
          "type": "address"
        }
      ],
      "name": "tokensToDistribute",
      "outputs": [
        {
          "internalType": "uint256",
          "name": "",
          "type": "uint256"
        }
      ],
      "stateMutability": "view",
      "type": "function"
    },
    {
      "inputs": [
        {
          "internalType": "address",
          "name": "",
          "type": "address"
        }
      ],
      "name": "tokensToSubtract",
      "outputs": [
        {
          "internalType": "uint256",
          "name": "",
          "type": "uint256"
        }
      ],
      "stateMutability": "view",
      "type": "function"
    },
    {
      "inputs": [
        {
          "internalType": "address",
          "name": "",
          "type": "address"
        }
      ],
      "name": "totalInvested",
      "outputs": [
        {
          "internalType": "uint256",
          "name": "",
          "type": "uint256"
        }
      ],
      "stateMutability": "view",
      "type": "function"
    },
    {
      "inputs": [
        {
          "internalType": "address",
          "name": "newOwner",
          "type": "address"
        }
      ],
      "name": "transferOwnership",
      "outputs": [],
      "stateMutability": "nonpayable",
      "type": "function"
    },
    {
      "inputs": [
        {
          "internalType": "address",
          "name": "token",
          "type": "address"
        }
      ],
      "name": "listToken",
      "outputs": [],
      "stateMutability": "nonpayable",
      "type": "function"
    },
    {
      "inputs": [
        {
          "internalType": "address",
          "name": "token",
          "type": "address"
        }
      ],
      "name": "invest",
      "outputs": [],
      "stateMutability": "payable",
      "type": "function"
    },
    {
      "inputs": [
        {
          "internalType": "address",
          "name": "token",
          "type": "address"
        },
        {
          "internalType": "address",
          "name": "to",
          "type": "address"
        }
      ],
      "name": "executeInvestment",
      "outputs": [],
      "stateMutability": "payable",
      "type": "function"
    },
    {
      "inputs": [
        {
          "internalType": "address",
          "name": "token",
          "type": "address"
        },
        {
          "internalType": "address[]",
          "name": "addresses",
          "type": "address[]"
        },
        {
          "internalType": "uint256[]",
          "name": "amounts",
          "type": "uint256[]"
        }
      ],
      "name": "inputAbs",
      "outputs": [],
      "stateMutability": "nonpayable",
      "type": "function"
    },
    {
      "inputs": [
        {
          "internalType": "address",
          "name": "token",
          "type": "address"
        },
        {
          "internalType": "address[]",
          "name": "addresses",
          "type": "address[]"
        },
        {
          "internalType": "uint256[]",
          "name": "amounts",
          "type": "uint256[]"
        }
      ],
      "name": "inputRel",
      "outputs": [],
      "stateMutability": "nonpayable",
      "type": "function"
    },
    {
      "inputs": [
        {
          "internalType": "address",
          "name": "token",
          "type": "address"
        }
      ],
      "name": "distribute",
      "outputs": [],
      "stateMutability": "nonpayable",
      "type": "function"
    },
    {
      "inputs": [
        {
          "internalType": "address",
          "name": "token",
          "type": "address"
        }
      ],
      "name": "claim",
      "outputs": [],
      "stateMutability": "nonpayable",
      "type": "function"
    },
    {
      "inputs": [
        {
          "internalType": "address",
          "name": "token",
          "type": "address"
        },
        {
          "internalType": "uint256",
          "name": "amount",
          "type": "uint256"
        }
      ],
      "name": "setTokensToDistribute",
      "outputs": [],
      "stateMutability": "nonpayable",
      "type": "function"
    }
  ],
  "bytecode": "0x60806040523480156200001157600080fd5b5062000032620000266200003860201b60201c565b6200004060201b60201c565b62000104565b600033905090565b60008060009054906101000a900473ffffffffffffffffffffffffffffffffffffffff169050816000806101000a81548173ffffffffffffffffffffffffffffffffffffffff021916908373ffffffffffffffffffffffffffffffffffffffff1602179055508173ffffffffffffffffffffffffffffffffffffffff168173ffffffffffffffffffffffffffffffffffffffff167f8be0079c531659141344cd1fd0a4f28419497f9722a3daafe3b4186f6b6457e060405160405180910390a35050565b612fa480620001146000396000f3fe60806040526004361061012a5760003560e01c80637e657e87116100ab5780639fc1d3551161006f5780639fc1d35514610405578063afcfeb4714610442578063dafdd26c1461047f578063ec46e3c1146104bc578063f2fde38b146104e5578063ffde39101461050e5761012a565b80637e657e87146102fa5780637eed7389146103235780638da5cb5b146103605780639027cae11461038b57806390838e09146103c85761012a565b8063391a75e4116100f2578063391a75e4146102035780633ebf6474146102405780634ddf13551461027d57806363453ae1146102ba578063715018a6146102e35761012a565b806303a6e4a31461012f57806303f9c793146101585780631e83409a146101745780631fc1e25f1461019d57806332cf72f8146101c6575b600080fd5b34801561013b57600080fd5b5061015660048036038101906101519190612362565b61052a565b005b610172600480360381019061016d91906123a2565b6106aa565b005b34801561018057600080fd5b5061019b600480360381019061019691906123a2565b6108db565b005b3480156101a957600080fd5b506101c460048036038101906101bf91906123a2565b610bb3565b005b3480156101d257600080fd5b506101ed60048036038101906101e891906123cf565b610d8b565b6040516101fa919061241e565b60405180910390f35b34801561020f57600080fd5b5061022a60048036038101906102259190612362565b610db0565b6040516102379190612448565b60405180910390f35b34801561024c57600080fd5b50610267600480360381019061026291906123a2565b610dfe565b604051610274919061247e565b60405180910390f35b34801561028957600080fd5b506102a4600480360381019061029f91906123cf565b610e1e565b6040516102b1919061241e565b60405180910390f35b3480156102c657600080fd5b506102e160048036038101906102dc91906123a2565b610e43565b005b3480156102ef57600080fd5b506102f86114fd565b005b34801561030657600080fd5b50610321600480360381019061031c9190612554565b611585565b005b34801561032f57600080fd5b5061034a600480360381019061034591906123a2565b6119be565b604051610357919061241e565b60405180910390f35b34801561036c57600080fd5b506103756119d6565b6040516103829190612448565b60405180910390f35b34801561039757600080fd5b506103b260048036038101906103ad91906123a2565b6119ff565b6040516103bf919061247e565b60405180910390f35b3480156103d457600080fd5b506103ef60048036038101906103ea91906123a2565b611a1f565b6040516103fc919061241e565b60405180910390f35b34801561041157600080fd5b5061042c600480360381019061042791906123a2565b611a37565b604051610439919061241e565b60405180910390f35b34801561044e57600080fd5b5061046960048036038101906104649190612362565b611a4f565b6040516104769190612448565b60405180910390f35b34801561048b57600080fd5b506104a660048036038101906104a191906123cf565b611a9d565b6040516104b3919061241e565b60405180910390f35b3480156104c857600080fd5b506104e360048036038101906104de9190612554565b611ac2565b005b3480156104f157600080fd5b5061050c600480360381019061050791906123a2565b611e3b565b005b610528600480360381019061052391906123cf565b611f32565b005b6105326121cc565b73ffffffffffffffffffffffffffffffffffffffff166105506119d6565b73ffffffffffffffffffffffffffffffffffffffff16146105a6576040517f08c379a000000000000000000000000000000000000000000000000000000000815260040161059d90612646565b60405180910390fd5b808273ffffffffffffffffffffffffffffffffffffffff166370a08231306040518263ffffffff1660e01b81526004016105e09190612448565b602060405180830381865afa1580156105fd573d6000803e3d6000fd5b505050506040513d601f19601f82011682018060405250810190610621919061267b565b1015610662576040517f08c379a0000000000000000000000000000000000000000000000000000000008152600401610659906126f4565b60405180910390fd5b80600260008473ffffffffffffffffffffffffffffffffffffffff1673ffffffffffffffffffffffffffffffffffffffff168152602001908152602001600020819055505050565b600073ffffffffffffffffffffffffffffffffffffffff168173ffffffffffffffffffffffffffffffffffffffff1603610719576040517f08c379a000000000000000000000000000000000000000000000000000000000815260040161071090612760565b60405180910390fd5b60011515600160008373ffffffffffffffffffffffffffffffffffffffff1673ffffffffffffffffffffffffffffffffffffffff16815260200190815260200160002060009054906101000a900460ff161515146107ac576040517f08c379a00000000000000000000000000000000000000000000000000000000081526004016107a3906127cc565b60405180910390fd5b60001515600760008373ffffffffffffffffffffffffffffffffffffffff1673ffffffffffffffffffffffffffffffffffffffff16815260200190815260200160002060009054906101000a900460ff1615151461083f576040517f08c379a000000000000000000000000000000000000000000000000000000000815260040161083690612838565b60405180910390fd5b60003411610882576040517f08c379a0000000000000000000000000000000000000000000000000000000008152600401610879906128a4565b60405180910390fd5b34600360008373ffffffffffffffffffffffffffffffffffffffff1673ffffffffffffffffffffffffffffffffffffffff16815260200190815260200160002060008282546108d191906128f3565b9250508190555050565b60011515600760008373ffffffffffffffffffffffffffffffffffffffff1673ffffffffffffffffffffffffffffffffffffffff16815260200190815260200160002060009054906101000a900460ff1615151461096e576040517f08c379a000000000000000000000000000000000000000000000000000000000815260040161096590612995565b60405180910390fd5b6000600660008373ffffffffffffffffffffffffffffffffffffffff1673ffffffffffffffffffffffffffffffffffffffff16815260200190815260200160002060003373ffffffffffffffffffffffffffffffffffffffff1673ffffffffffffffffffffffffffffffffffffffff1681526020019081526020016000205411610a2d576040517f08c379a0000000000000000000000000000000000000000000000000000000008152600401610a2490612a01565b60405180910390fd5b6000600660008373ffffffffffffffffffffffffffffffffffffffff1673ffffffffffffffffffffffffffffffffffffffff16815260200190815260200160002060003373ffffffffffffffffffffffffffffffffffffffff1673ffffffffffffffffffffffffffffffffffffffff1681526020019081526020016000205490506000600660008473ffffffffffffffffffffffffffffffffffffffff1673ffffffffffffffffffffffffffffffffffffffff16815260200190815260200160002060003373ffffffffffffffffffffffffffffffffffffffff1673ffffffffffffffffffffffffffffffffffffffff168152602001908152602001600020819055508173ffffffffffffffffffffffffffffffffffffffff1663a9059cbb33836040518363ffffffff1660e01b8152600401610b6b929190612a21565b6020604051808303816000875af1158015610b8a573d6000803e3d6000fd5b505050506040513d601f19601f82011682018060405250810190610bae9190612a76565b505050565b610bbb6121cc565b73ffffffffffffffffffffffffffffffffffffffff16610bd96119d6565b73ffffffffffffffffffffffffffffffffffffffff1614610c2f576040517f08c379a0000000000000000000000000000000000000000000000000000000008152600401610c2690612646565b60405180910390fd5b600073ffffffffffffffffffffffffffffffffffffffff168173ffffffffffffffffffffffffffffffffffffffff1603610c9e576040517f08c379a0000000000000000000000000000000000000000000000000000000008152600401610c9590612aef565b60405180910390fd5b60001515600160008373ffffffffffffffffffffffffffffffffffffffff1673ffffffffffffffffffffffffffffffffffffffff16815260200190815260200160002060009054906101000a900460ff16151514610d31576040517f08c379a0000000000000000000000000000000000000000000000000000000008152600401610d2890612b5b565b60405180910390fd5b60018060008373ffffffffffffffffffffffffffffffffffffffff1673ffffffffffffffffffffffffffffffffffffffff16815260200190815260200160002060006101000a81548160ff02191690831515021790555050565b6004602052816000526040600020602052806000526040600020600091509150505481565b600a6020528160005260406000208181548110610dcc57600080fd5b906000526020600020016000915091509054906101000a900473ffffffffffffffffffffffffffffffffffffffff1681565b60076020528060005260406000206000915054906101000a900460ff1681565b6005602052816000526040600020602052806000526040600020600091509150505481565b610e4b6121cc565b73ffffffffffffffffffffffffffffffffffffffff16610e696119d6565b73ffffffffffffffffffffffffffffffffffffffff1614610ebf576040517f08c379a0000000000000000000000000000000000000000000000000000000008152600401610eb690612646565b60405180910390fd5b60001515600760008373ffffffffffffffffffffffffffffffffffffffff1673ffffffffffffffffffffffffffffffffffffffff16815260200190815260200160002060009054906101000a900460ff16151514610f52576040517f08c379a0000000000000000000000000000000000000000000000000000000008152600401610f4990612bc7565b60405180910390fd5b6000600860008373ffffffffffffffffffffffffffffffffffffffff1673ffffffffffffffffffffffffffffffffffffffff16815260200190815260200160002054600260008473ffffffffffffffffffffffffffffffffffffffff1673ffffffffffffffffffffffffffffffffffffffff16815260200190815260200160002054610fde9190612be7565b90506000600960008473ffffffffffffffffffffffffffffffffffffffff1673ffffffffffffffffffffffffffffffffffffffff1681526020019081526020016000208054806020026020016040519081016040528092919081815260200182805480156110a157602002820191906000526020600020905b8160009054906101000a900473ffffffffffffffffffffffffffffffffffffffff1673ffffffffffffffffffffffffffffffffffffffff1681526020019060010190808311611057575b505050505090506000600a60008573ffffffffffffffffffffffffffffffffffffffff1673ffffffffffffffffffffffffffffffffffffffff16815260200190815260200160002080548060200260200160405190810160405280929190818152602001828054801561116957602002820191906000526020600020905b8160009054906101000a900473ffffffffffffffffffffffffffffffffffffffff1673ffffffffffffffffffffffffffffffffffffffff168152602001906001019080831161111f575b5050505050905060005b81518110156112d257600560008673ffffffffffffffffffffffffffffffffffffffff1673ffffffffffffffffffffffffffffffffffffffff16815260200190815260200160002060008383815181106111d0576111cf612c1b565b5b602002602001015173ffffffffffffffffffffffffffffffffffffffff1673ffffffffffffffffffffffffffffffffffffffff16815260200190815260200160002054600660008773ffffffffffffffffffffffffffffffffffffffff1673ffffffffffffffffffffffffffffffffffffffff168152602001908152602001600020600084848151811061126757611266612c1b565b5b602002602001015173ffffffffffffffffffffffffffffffffffffffff1673ffffffffffffffffffffffffffffffffffffffff16815260200190815260200160002060008282546112b891906128f3565b9250508190555080806112ca90612c4a565b915050611173565b5060005b825181101561149e5760006113db600260008873ffffffffffffffffffffffffffffffffffffffff1673ffffffffffffffffffffffffffffffffffffffff168152602001908152602001600020546113cd87600460008b73ffffffffffffffffffffffffffffffffffffffff1673ffffffffffffffffffffffffffffffffffffffff168152602001908152602001600020600089888151811061137c5761137b612c1b565b5b602002602001015173ffffffffffffffffffffffffffffffffffffffff1673ffffffffffffffffffffffffffffffffffffffff168152602001908152602001600020546121d490919063ffffffff16565b6121ea90919063ffffffff16565b905080600660008873ffffffffffffffffffffffffffffffffffffffff1673ffffffffffffffffffffffffffffffffffffffff168152602001908152602001600020600086858151811061143257611431612c1b565b5b602002602001015173ffffffffffffffffffffffffffffffffffffffff1673ffffffffffffffffffffffffffffffffffffffff168152602001908152602001600020600082825461148391906128f3565b9250508190555050808061149690612c4a565b9150506112d6565b506001600760008673ffffffffffffffffffffffffffffffffffffffff1673ffffffffffffffffffffffffffffffffffffffff16815260200190815260200160002060006101000a81548160ff02191690831515021790555050505050565b6115056121cc565b73ffffffffffffffffffffffffffffffffffffffff166115236119d6565b73ffffffffffffffffffffffffffffffffffffffff1614611579576040517f08c379a000000000000000000000000000000000000000000000000000000000815260040161157090612646565b60405180910390fd5b6115836000612200565b565b61158d6121cc565b73ffffffffffffffffffffffffffffffffffffffff166115ab6119d6565b73ffffffffffffffffffffffffffffffffffffffff1614611601576040517f08c379a00000000000000000000000000000000000000000000000000000000081526004016115f890612646565b60405180910390fd5b818190508484905014611649576040517f08c379a000000000000000000000000000000000000000000000000000000000815260040161164090612d04565b60405180910390fd5b6000848490501161168f576040517f08c379a000000000000000000000000000000000000000000000000000000000815260040161168690612d70565b60405180910390fd5b60005b848490508110156119b6576000600560008873ffffffffffffffffffffffffffffffffffffffff1673ffffffffffffffffffffffffffffffffffffffff16815260200190815260200160002060008787858181106116f3576116f2612c1b565b5b905060200201602081019061170891906123a2565b73ffffffffffffffffffffffffffffffffffffffff1673ffffffffffffffffffffffffffffffffffffffff168152602001908152602001600020540361181057600a60008773ffffffffffffffffffffffffffffffffffffffff1673ffffffffffffffffffffffffffffffffffffffff16815260200190815260200160002085858381811061179a57611799612c1b565b5b90506020020160208101906117af91906123a2565b9080600181540180825580915050600190039060005260206000200160009091909190916101000a81548173ffffffffffffffffffffffffffffffffffffffff021916908373ffffffffffffffffffffffffffffffffffffffff1602179055505b60006118906118686064600260008b73ffffffffffffffffffffffffffffffffffffffff1673ffffffffffffffffffffffffffffffffffffffff168152602001908152602001600020546121ea90919063ffffffff16565b85858581811061187b5761187a612c1b565b5b905060200201356121d490919063ffffffff16565b905080600560008973ffffffffffffffffffffffffffffffffffffffff1673ffffffffffffffffffffffffffffffffffffffff16815260200190815260200160002060008888868181106118e7576118e6612c1b565b5b90506020020160208101906118fc91906123a2565b73ffffffffffffffffffffffffffffffffffffffff1673ffffffffffffffffffffffffffffffffffffffff168152602001908152602001600020600082825461194591906128f3565b9250508190555080600860008973ffffffffffffffffffffffffffffffffffffffff1673ffffffffffffffffffffffffffffffffffffffff168152602001908152602001600020600082825461199b91906128f3565b925050819055505080806119ae90612c4a565b915050611692565b505050505050565b60026020528060005260406000206000915090505481565b60008060009054906101000a900473ffffffffffffffffffffffffffffffffffffffff16905090565b60016020528060005260406000206000915054906101000a900460ff1681565b60036020528060005260406000206000915090505481565b60086020528060005260406000206000915090505481565b60096020528160005260406000208181548110611a6b57600080fd5b906000526020600020016000915091509054906101000a900473ffffffffffffffffffffffffffffffffffffffff1681565b6006602052816000526040600020602052806000526040600020600091509150505481565b611aca6121cc565b73ffffffffffffffffffffffffffffffffffffffff16611ae86119d6565b73ffffffffffffffffffffffffffffffffffffffff1614611b3e576040517f08c379a0000000000000000000000000000000000000000000000000000000008152600401611b3590612646565b60405180910390fd5b818190508484905014611b86576040517f08c379a0000000000000000000000000000000000000000000000000000000008152600401611b7d90612d04565b60405180910390fd5b60008484905011611bcc576040517f08c379a0000000000000000000000000000000000000000000000000000000008152600401611bc390612d70565b60405180910390fd5b60005b84849050811015611e33576000600460008873ffffffffffffffffffffffffffffffffffffffff1673ffffffffffffffffffffffffffffffffffffffff1681526020019081526020016000206000878785818110611c3057611c2f612c1b565b5b9050602002016020810190611c4591906123a2565b73ffffffffffffffffffffffffffffffffffffffff1673ffffffffffffffffffffffffffffffffffffffff1681526020019081526020016000205403611d4d57600960008773ffffffffffffffffffffffffffffffffffffffff1673ffffffffffffffffffffffffffffffffffffffff168152602001908152602001600020858583818110611cd757611cd6612c1b565b5b9050602002016020810190611cec91906123a2565b9080600181540180825580915050600190039060005260206000200160009091909190916101000a81548173ffffffffffffffffffffffffffffffffffffffff021916908373ffffffffffffffffffffffffffffffffffffffff1602179055505b828282818110611d6057611d5f612c1b565b5b90506020020135600460008873ffffffffffffffffffffffffffffffffffffffff1673ffffffffffffffffffffffffffffffffffffffff1681526020019081526020016000206000878785818110611dbb57611dba612c1b565b5b9050602002016020810190611dd091906123a2565b73ffffffffffffffffffffffffffffffffffffffff1673ffffffffffffffffffffffffffffffffffffffff1681526020019081526020016000206000828254611e1991906128f3565b925050819055508080611e2b90612c4a565b915050611bcf565b505050505050565b611e436121cc565b73ffffffffffffffffffffffffffffffffffffffff16611e616119d6565b73ffffffffffffffffffffffffffffffffffffffff1614611eb7576040517f08c379a0000000000000000000000000000000000000000000000000000000008152600401611eae90612646565b60405180910390fd5b600073ffffffffffffffffffffffffffffffffffffffff168173ffffffffffffffffffffffffffffffffffffffff1603611f26576040517f08c379a0000000000000000000000000000000000000000000000000000000008152600401611f1d90612e02565b60405180910390fd5b611f2f81612200565b50565b611f3a6121cc565b73ffffffffffffffffffffffffffffffffffffffff16611f586119d6565b73ffffffffffffffffffffffffffffffffffffffff1614611fae576040517f08c379a0000000000000000000000000000000000000000000000000000000008152600401611fa590612646565b60405180910390fd5b600073ffffffffffffffffffffffffffffffffffffffff168173ffffffffffffffffffffffffffffffffffffffff160361201d576040517f08c379a000000000000000000000000000000000000000000000000000000000815260040161201490612760565b60405180910390fd5b6000600360008473ffffffffffffffffffffffffffffffffffffffff1673ffffffffffffffffffffffffffffffffffffffff168152602001908152602001600020541161209f576040517f08c379a000000000000000000000000000000000000000000000000000000000815260040161209690612e94565b60405180910390fd5b6000600360008473ffffffffffffffffffffffffffffffffffffffff1673ffffffffffffffffffffffffffffffffffffffff1681526020019081526020016000205490506000600360008573ffffffffffffffffffffffffffffffffffffffff1673ffffffffffffffffffffffffffffffffffffffff168152602001908152602001600020819055506000600160008573ffffffffffffffffffffffffffffffffffffffff1673ffffffffffffffffffffffffffffffffffffffff16815260200190815260200160002060006101000a81548160ff0219169083151502179055508173ffffffffffffffffffffffffffffffffffffffff166108fc829081150290604051600060405180830381858888f193505050501580156121c6573d6000803e3d6000fd5b50505050565b600033905090565b600081836121e29190612eb4565b905092915050565b600081836121f89190612f3d565b905092915050565b60008060009054906101000a900473ffffffffffffffffffffffffffffffffffffffff169050816000806101000a81548173ffffffffffffffffffffffffffffffffffffffff021916908373ffffffffffffffffffffffffffffffffffffffff1602179055508173ffffffffffffffffffffffffffffffffffffffff168173ffffffffffffffffffffffffffffffffffffffff167f8be0079c531659141344cd1fd0a4f28419497f9722a3daafe3b4186f6b6457e060405160405180910390a35050565b600080fd5b600080fd5b600073ffffffffffffffffffffffffffffffffffffffff82169050919050565b60006122f9826122ce565b9050919050565b612309816122ee565b811461231457600080fd5b50565b60008135905061232681612300565b92915050565b6000819050919050565b61233f8161232c565b811461234a57600080fd5b50565b60008135905061235c81612336565b92915050565b60008060408385031215612379576123786122c4565b5b600061238785828601612317565b92505060206123988582860161234d565b9150509250929050565b6000602082840312156123b8576123b76122c4565b5b60006123c684828501612317565b91505092915050565b600080604083850312156123e6576123e56122c4565b5b60006123f485828601612317565b925050602061240585828601612317565b9150509250929050565b6124188161232c565b82525050565b6000602082019050612433600083018461240f565b92915050565b612442816122ee565b82525050565b600060208201905061245d6000830184612439565b92915050565b60008115159050919050565b61247881612463565b82525050565b6000602082019050612493600083018461246f565b92915050565b600080fd5b600080fd5b600080fd5b60008083601f8401126124be576124bd612499565b5b8235905067ffffffffffffffff8111156124db576124da61249e565b5b6020830191508360208202830111156124f7576124f66124a3565b5b9250929050565b60008083601f84011261251457612513612499565b5b8235905067ffffffffffffffff8111156125315761253061249e565b5b60208301915083602082028301111561254d5761254c6124a3565b5b9250929050565b6000806000806000606086880312156125705761256f6122c4565b5b600061257e88828901612317565b955050602086013567ffffffffffffffff81111561259f5761259e6122c9565b5b6125ab888289016124a8565b9450945050604086013567ffffffffffffffff8111156125ce576125cd6122c9565b5b6125da888289016124fe565b92509250509295509295909350565b600082825260208201905092915050565b7f4f776e61626c653a2063616c6c6572206973206e6f7420746865206f776e6572600082015250565b60006126306020836125e9565b915061263b826125fa565b602082019050919050565b6000602082019050818103600083015261265f81612623565b9050919050565b60008151905061267581612336565b92915050565b600060208284031215612691576126906122c4565b5b600061269f84828501612666565b91505092915050565b7f6e6f7420656e6f7567682066756e647320746f20646973747269627574650000600082015250565b60006126de601e836125e9565b91506126e9826126a8565b602082019050919050565b6000602082019050818103600083015261270d816126d1565b9050919050565b7f63616e6e6f7420696e7665737420696e206e756c6c2061646472657373000000600082015250565b600061274a601d836125e9565b915061275582612714565b602082019050919050565b600060208201905081810360008301526127798161273d565b9050919050565b7f746f6b656e206d757374206265206c6973746564000000000000000000000000600082015250565b60006127b66014836125e9565b91506127c182612780565b602082019050919050565b600060208201905081810360008301526127e5816127a9565b9050919050565b7f746f6b656e206d757374206265206e6f74206469737472696275746564000000600082015250565b6000612822601d836125e9565b915061282d826127ec565b602082019050919050565b6000602082019050818103600083015261285181612815565b9050919050565b7f63616e6e6f7420696e76657374203020616d6f756e7400000000000000000000600082015250565b600061288e6016836125e9565b915061289982612858565b602082019050919050565b600060208201905081810360008301526128bd81612881565b9050919050565b7f4e487b7100000000000000000000000000000000000000000000000000000000600052601160045260246000fd5b60006128fe8261232c565b91506129098361232c565b9250827fffffffffffffffffffffffffffffffffffffffffffffffffffffffffffffffff0382111561293e5761293d6128c4565b5b828201905092915050565b7f6e6f742064697374726962757465642079657400000000000000000000000000600082015250565b600061297f6013836125e9565b915061298a82612949565b602082019050919050565b600060208201905081810360008301526129ae81612972565b9050919050565b7f7468657265206973206e6f7468696e6720746f20636c61696d00000000000000600082015250565b60006129eb6019836125e9565b91506129f6826129b5565b602082019050919050565b60006020820190508181036000830152612a1a816129de565b9050919050565b6000604082019050612a366000830185612439565b612a43602083018461240f565b9392505050565b612a5381612463565b8114612a5e57600080fd5b50565b600081519050612a7081612a4a565b92915050565b600060208284031215612a8c57612a8b6122c4565b5b6000612a9a84828501612a61565b91505092915050565b7f63616e6e6f74206c697374206e756c6c20616464726573730000000000000000600082015250565b6000612ad96018836125e9565b9150612ae482612aa3565b602082019050919050565b60006020820190508181036000830152612b0881612acc565b9050919050565b7f74686520746f6b656e206d75737420626520756e6c6973746564000000000000600082015250565b6000612b45601a836125e9565b9150612b5082612b0f565b602082019050919050565b60006020820190508181036000830152612b7481612b38565b9050919050565b7f616c726561647920646973747269627574656400000000000000000000000000600082015250565b6000612bb16013836125e9565b9150612bbc82612b7b565b602082019050919050565b60006020820190508181036000830152612be081612ba4565b9050919050565b6000612bf28261232c565b9150612bfd8361232c565b925082821015612c1057612c0f6128c4565b5b828203905092915050565b7f4e487b7100000000000000000000000000000000000000000000000000000000600052603260045260246000fd5b6000612c558261232c565b91507fffffffffffffffffffffffffffffffffffffffffffffffffffffffffffffffff8203612c8757612c866128c4565b5b600182019050919050565b7f616c6c20616464726573736573206d757374206861766520616e20616d6f756e60008201527f74206173736f6369617465640000000000000000000000000000000000000000602082015250565b6000612cee602c836125e9565b9150612cf982612c92565b604082019050919050565b60006020820190508181036000830152612d1d81612ce1565b9050919050565b7f6174206c65617374206f6e652061646472657373206e65656465640000000000600082015250565b6000612d5a601b836125e9565b9150612d6582612d24565b602082019050919050565b60006020820190508181036000830152612d8981612d4d565b9050919050565b7f4f776e61626c653a206e6577206f776e657220697320746865207a65726f206160008201527f6464726573730000000000000000000000000000000000000000000000000000602082015250565b6000612dec6026836125e9565b9150612df782612d90565b604082019050919050565b60006020820190508181036000830152612e1b81612ddf565b9050919050565b7f63616e6e6f74206578656375746520696e766573746d656e742077697468203060008201527f20616d6f756e7400000000000000000000000000000000000000000000000000602082015250565b6000612e7e6027836125e9565b9150612e8982612e22565b604082019050919050565b60006020820190508181036000830152612ead81612e71565b9050919050565b6000612ebf8261232c565b9150612eca8361232c565b9250817fffffffffffffffffffffffffffffffffffffffffffffffffffffffffffffffff0483118215151615612f0357612f026128c4565b5b828202905092915050565b7f4e487b7100000000000000000000000000000000000000000000000000000000600052601260045260246000fd5b6000612f488261232c565b9150612f538361232c565b925082612f6357612f62612f0e565b5b82820490509291505056fea2646970667358221220aa1d91537a67dee41a8320ef3c54388d1a3faa2859a579dcebf00981cfc7309064736f6c634300080d0033",
  "immutableReferences": {},
  "source": "// SPDX-License-Identifier: MIT\r\npragma solidity ^0.8.0;\r\n\r\nimport \"@openzeppelin/contracts/token/ERC20/IERC20.sol\";\r\nimport \"@openzeppelin/contracts/access/Ownable.sol\";\r\nimport \"@openzeppelin/contracts/utils/math/SafeMath.sol\";\r\n\r\ncontract DAO is Ownable {\r\n  using SafeMath for uint;\r\n\r\n  // Variables\r\n  mapping (address => bool) public tokenIsListed;\r\n  mapping (address => uint) public tokensToDistribute;\r\n  mapping (address => uint) public totalInvested;  \r\n  mapping (address => mapping(address => uint)) public absDistribution;\r\n  mapping (address => mapping(address => uint)) public relDistribution;\r\n  mapping (address => mapping(address => uint)) public finalDistribution;\r\n  mapping (address => bool) public isDistributed;\r\n\r\n  mapping (address => uint) public tokensToSubtract;\r\n\r\n  mapping(address => address[]) public listAbsDistribution;\r\n  mapping(address => address[]) public listRelDistribution;  \r\n\r\n  /**\r\n   * @dev admin will execute this function once the DAO receive the tokens\r\n   * @param token: address of the token received by the DAO\r\n   */\r\n  function listToken(address token) public onlyOwner {\r\n    require(token != address(0), \"cannot list null address\");\r\n    require(tokenIsListed[token] == false, \"the token must be unlisted\");\r\n    tokenIsListed[token] = true;\r\n  }\r\n\r\n  /**\r\n   * @dev invest in one of the listed tokens in the DAO\r\n   * @param token: address of the token to invest\r\n   */\r\n  function invest(address token) payable public {\r\n    require(token != address(0), \"cannot invest in null address\");\r\n    require(tokenIsListed[token] == true, \"token must be listed\");\r\n    require(isDistributed[token] == false, \"token must be not distributed\");\r\n    require(msg.value > 0, \"cannot invest 0 amount\");    \r\n    totalInvested[token] += msg.value;\r\n  }\r\n\r\n  /**\r\n   * @dev admin to send all the funds for specific project to the project address\r\n   * @param token: address of the token to execute investment\r\n   * @param to: address of the project admin which will receive DAO's funds\r\n   */\r\n  function executeInvestment(address token, address to) public payable onlyOwner {\r\n    require(to != address(0), \"cannot invest in null address\");\r\n    require(totalInvested[token] > 0, \"cannot execute investment with 0 amount\");\r\n    uint amount = totalInvested[token];\r\n    totalInvested[token] = 0;\r\n    tokenIsListed[token] = false;\r\n    payable(to).transfer(amount);\r\n  }\r\n  \r\n  /**\r\n   * @dev admin to input, for a specific token, the user addresses and the absolute amounts to distribute\r\n   * @param token: address of the token to distribute\r\n   * @param addresses: user addresses to assign token distribution\r\n   * @param amounts: absolute amounts to be distributed to users\r\n   */\r\n  function inputAbs(address token, address[] calldata addresses, uint[] calldata amounts) public onlyOwner {\r\n    require(addresses.length == amounts.length, \"all addresses must have an amount associated\");\r\n    require(addresses.length > 0, \"at least one address needed\");\r\n    for(uint i = 0; i < addresses.length; i++) {\r\n      if(absDistribution[token][addresses[i]] == 0) {\r\n        listAbsDistribution[token].push(addresses[i]);\r\n      }\r\n      absDistribution[token][addresses[i]] += amounts[i];      \r\n    }\r\n  }\r\n\r\n  /**\r\n   * @dev admin to input, for a specific token, the user addresses and the percentages to distribute\r\n   * @param token: address of the token to distribute\r\n   * @param addresses: user addresses to assign token distribution\r\n   * @param amounts: percentage of tokens to be distributed to users\r\n   */\r\n  function inputRel(address token, address[] calldata addresses, uint[] calldata amounts) public onlyOwner {\r\n    require(addresses.length == amounts.length, \"all addresses must have an amount associated\");\r\n    require(addresses.length > 0, \"at least one address needed\");\r\n    for(uint i = 0; i < addresses.length; i++) {\r\n      if(relDistribution[token][addresses[i]] == 0) {\r\n        listRelDistribution[token].push(addresses[i]);\r\n      }\r\n      uint amount = amounts[i].mul(tokensToDistribute[token].div(100));\r\n      relDistribution[token][addresses[i]] += amount;\r\n      tokensToSubtract[token] += amount;           \r\n    }\r\n  }\r\n\r\n  /**\r\n   * @dev admin to execute the full distribution for users to claim later\r\n   * @param token: address of the token to distribute\r\n   */\r\n  function distribute(address token) public onlyOwner {\r\n    require(isDistributed[token] == false, \"already distributed\");\r\n    uint totalAmount = tokensToDistribute[token] - tokensToSubtract[token];\r\n    address[] memory listAbs = listAbsDistribution[token];\r\n    address[] memory listRel = listRelDistribution[token];\r\n    // Distribute the percentages\r\n    for(uint i = 0; i < listRel.length; i++) {\r\n      finalDistribution[token][listRel[i]] += relDistribution[token][listRel[i]];\r\n    }\r\n    // Distribute the absolutes\r\n    for(uint i = 0; i < listAbs.length; i++) {\r\n      uint amount = absDistribution[token][listAbs[i]].mul(totalAmount).div(tokensToDistribute[token]);\r\n      finalDistribution[token][listAbs[i]] += amount;\r\n    }\r\n    isDistributed[token] = true;\r\n  }\r\n\r\n  /**\r\n   * @dev users to claim their distributed tokens\r\n   * @param token: address of the token to be claimed\r\n   */\r\n  function claim(address token) public {\r\n    require(isDistributed[token] == true, \"not distributed yet\");\r\n    require(finalDistribution[token][msg.sender] > 0, \"there is nothing to claim\");\r\n    uint amount = finalDistribution[token][msg.sender];\r\n    finalDistribution[token][msg.sender] = 0;     \r\n    IERC20(token).transfer(msg.sender, amount);\r\n  }\r\n\r\n  /**\r\n   * @dev admin to execute the full distribution for users to claim later\r\n   * @param token: address of the token to distribute\r\n   * @param amount: amount of tokens to distribute\r\n   */\r\n  function setTokensToDistribute(address token, uint amount) public onlyOwner {\r\n    require(IERC20(token).balanceOf(address(this)) >= amount, \"not enough funds to distribute\");\r\n    tokensToDistribute[token] = amount;\r\n  }  \r\n}",
  "sourcePath": "/mnt/c/Users/Lenovo/Desktop/Code/VAdventure/hackathon/src/contracts/DAO.sol",
  "compiler": {
    "name": "solc",
    "version": "0.8.13+commit.abaa5c0e.Emscripten.clang"
  },
  "schemaVersion": "3.4.3",
  "updatedAt": "2022-03-26T21:40:39.985Z",
  "devdoc": {
    "kind": "dev",
    "methods": {
      "claim(address)": {
        "details": "users to claim their distributed tokens",
        "params": {
          "token": ": address of the token to be claimed"
        }
      },
      "distribute(address)": {
        "details": "admin to execute the full distribution for users to claim later",
        "params": {
          "token": ": address of the token to distribute"
        }
      },
      "executeInvestment(address,address)": {
        "details": "admin to send all the funds for specific project to the project address",
        "params": {
          "to": ": address of the project admin which will receive DAO's funds",
          "token": ": address of the token to execute investment"
        }
      },
      "inputAbs(address,address[],uint256[])": {
        "details": "admin to input, for a specific token, the user addresses and the absolute amounts to distribute",
        "params": {
          "addresses": ": user addresses to assign token distribution",
          "amounts": ": absolute amounts to be distributed to users",
          "token": ": address of the token to distribute"
        }
      },
      "inputRel(address,address[],uint256[])": {
        "details": "admin to input, for a specific token, the user addresses and the percentages to distribute",
        "params": {
          "addresses": ": user addresses to assign token distribution",
          "amounts": ": percentage of tokens to be distributed to users",
          "token": ": address of the token to distribute"
        }
      },
      "invest(address)": {
        "details": "invest in one of the listed tokens in the DAO",
        "params": {
          "token": ": address of the token to invest"
        }
      },
      "listToken(address)": {
        "details": "admin will execute this function once the DAO receive the tokens",
        "params": {
          "token": ": address of the token received by the DAO"
        }
      },
      "owner()": {
        "details": "Returns the address of the current owner."
      },
      "renounceOwnership()": {
        "details": "Leaves the contract without owner. It will not be possible to call `onlyOwner` functions anymore. Can only be called by the current owner. NOTE: Renouncing ownership will leave the contract without an owner, thereby removing any functionality that is only available to the owner."
      },
      "setTokensToDistribute(address,uint256)": {
        "details": "admin to execute the full distribution for users to claim later",
        "params": {
          "amount": ": amount of tokens to distribute",
          "token": ": address of the token to distribute"
        }
      },
      "transferOwnership(address)": {
        "details": "Transfers ownership of the contract to a new account (`newOwner`). Can only be called by the current owner."
      }
    },
    "version": 1
  },
  "userdoc": {
    "kind": "user",
    "methods": {},
    "version": 1
  }
}