{
  "contractName": "DAOCOPY",
  "abi": [
    {
      "inputs": [
        {
          "internalType": "address payable",
          "name": "_treasury",
          "type": "address"
        }
      ],
      "stateMutability": "nonpayable",
      "type": "constructor"
    },
    {
      "anonymous": false,
      "inputs": [
        {
          "indexed": true,
          "internalType": "address",
          "name": "previousOwner",
          "type": "address"
        },
        {
          "indexed": true,
          "internalType": "address",
          "name": "newOwner",
          "type": "address"
        }
      ],
      "name": "OwnershipTransferred",
      "type": "event"
    },
    {
      "inputs": [
        {
          "internalType": "address",
          "name": "",
          "type": "address"
        }
      ],
      "name": "amountToDistribute",
      "outputs": [
        {
          "internalType": "uint256",
          "name": "",
          "type": "uint256"
        }
      ],
      "stateMutability": "view",
      "type": "function"
    },
    {
      "inputs": [
        {
          "internalType": "address",
          "name": "",
          "type": "address"
        }
      ],
      "name": "investmentToExecute",
      "outputs": [
        {
          "internalType": "uint256",
          "name": "",
          "type": "uint256"
        }
      ],
      "stateMutability": "view",
      "type": "function"
    },
    {
      "inputs": [],
      "name": "owner",
      "outputs": [
        {
          "internalType": "address",
          "name": "",
          "type": "address"
        }
      ],
      "stateMutability": "view",
      "type": "function"
    },
    {
      "inputs": [],
      "name": "renounceOwnership",
      "outputs": [],
      "stateMutability": "nonpayable",
      "type": "function"
    },
    {
      "inputs": [
        {
          "internalType": "address",
          "name": "",
          "type": "address"
        }
      ],
      "name": "tokenIsClaimable",
      "outputs": [
        {
          "internalType": "bool",
          "name": "",
          "type": "bool"
        }
      ],
      "stateMutability": "view",
      "type": "function"
    },
    {
      "inputs": [
        {
          "internalType": "address",
          "name": "",
          "type": "address"
        }
      ],
      "name": "tokenIsListed",
      "outputs": [
        {
          "internalType": "bool",
          "name": "",
          "type": "bool"
        }
      ],
      "stateMutability": "view",
      "type": "function"
    },
    {
      "inputs": [
        {
          "internalType": "address",
          "name": "",
          "type": "address"
        }
      ],
      "name": "totalInvestment",
      "outputs": [
        {
          "internalType": "uint256",
          "name": "",
          "type": "uint256"
        }
      ],
      "stateMutability": "view",
      "type": "function"
    },
    {
      "inputs": [
        {
          "internalType": "address",
          "name": "newOwner",
          "type": "address"
        }
      ],
      "name": "transferOwnership",
      "outputs": [],
      "stateMutability": "nonpayable",
      "type": "function"
    },
    {
      "inputs": [
        {
          "internalType": "address",
          "name": "",
          "type": "address"
        },
        {
          "internalType": "address",
          "name": "",
          "type": "address"
        }
      ],
      "name": "userInvestment",
      "outputs": [
        {
          "internalType": "uint256",
          "name": "",
          "type": "uint256"
        }
      ],
      "stateMutability": "view",
      "type": "function"
    },
    {
      "inputs": [
        {
          "internalType": "address",
          "name": "token",
          "type": "address"
        }
      ],
      "name": "invest",
      "outputs": [],
      "stateMutability": "payable",
      "type": "function"
    },
    {
      "inputs": [
        {
          "internalType": "address",
          "name": "token",
          "type": "address"
        }
      ],
      "name": "claimTokens",
      "outputs": [],
      "stateMutability": "nonpayable",
      "type": "function"
    },
    {
      "inputs": [
        {
          "internalType": "address",
          "name": "token",
          "type": "address"
        }
      ],
      "name": "listToken",
      "outputs": [],
      "stateMutability": "nonpayable",
      "type": "function"
    },
    {
      "inputs": [
        {
          "internalType": "address",
          "name": "token",
          "type": "address"
        },
        {
          "internalType": "address",
          "name": "to",
          "type": "address"
        }
      ],
      "name": "executeInvestment",
      "outputs": [],
      "stateMutability": "payable",
      "type": "function"
    },
    {
      "inputs": [
        {
          "internalType": "address",
          "name": "token",
          "type": "address"
        }
      ],
      "name": "makeTokenClaimable",
      "outputs": [],
      "stateMutability": "nonpayable",
      "type": "function"
    }
  ],
  "bytecode": "0x60806040523480156200001157600080fd5b5060405162002275380380620022758339818101604052810190620000379190620001d5565b620000576200004b6200009f60201b60201c565b620000a760201b60201c565b80600160006101000a81548173ffffffffffffffffffffffffffffffffffffffff021916908373ffffffffffffffffffffffffffffffffffffffff1602179055505062000207565b600033905090565b60008060009054906101000a900473ffffffffffffffffffffffffffffffffffffffff169050816000806101000a81548173ffffffffffffffffffffffffffffffffffffffff021916908373ffffffffffffffffffffffffffffffffffffffff1602179055508173ffffffffffffffffffffffffffffffffffffffff168173ffffffffffffffffffffffffffffffffffffffff167f8be0079c531659141344cd1fd0a4f28419497f9722a3daafe3b4186f6b6457e060405160405180910390a35050565b600080fd5b600073ffffffffffffffffffffffffffffffffffffffff82169050919050565b60006200019d8262000170565b9050919050565b620001af8162000190565b8114620001bb57600080fd5b50565b600081519050620001cf81620001a4565b92915050565b600060208284031215620001ee57620001ed6200016b565b5b6000620001fe84828501620001be565b91505092915050565b61205e80620002176000396000f3fe6080604052600436106100dd5760003560e01c80639b2b524f1161007f578063e116576911610059578063e1165769146102af578063f2fde38b146102ec578063fbc9e1e614610315578063ffde391014610352576100dd565b80639b2b524f1461020c578063c5d7e61914610249578063df8de3e714610286576100dd565b8063582c8b10116100bb578063582c8b1014610150578063715018a61461018d5780638da5cb5b146101a45780639027cae1146101cf576100dd565b806303f9c793146100e25780631fc1e25f146100fe5780632da3721114610127575b600080fd5b6100fc60048036038101906100f791906116ac565b61036e565b005b34801561010a57600080fd5b50610125600480360381019061012091906116ac565b610688565b005b34801561013357600080fd5b5061014e600480360381019061014991906116ac565b610861565b005b34801561015c57600080fd5b50610177600480360381019061017291906116ac565b610c6d565b60405161018491906116f2565b60405180910390f35b34801561019957600080fd5b506101a2610c85565b005b3480156101b057600080fd5b506101b9610d0d565b6040516101c6919061171c565b60405180910390f35b3480156101db57600080fd5b506101f660048036038101906101f191906116ac565b610d36565b6040516102039190611752565b60405180910390f35b34801561021857600080fd5b50610233600480360381019061022e91906116ac565b610d56565b60405161024091906116f2565b60405180910390f35b34801561025557600080fd5b50610270600480360381019061026b91906116ac565b610d6e565b60405161027d9190611752565b60405180910390f35b34801561029257600080fd5b506102ad60048036038101906102a891906116ac565b610d8e565b005b3480156102bb57600080fd5b506102d660048036038101906102d1919061176d565b611183565b6040516102e391906116f2565b60405180910390f35b3480156102f857600080fd5b50610313600480360381019061030e91906116ac565b6111a8565b005b34801561032157600080fd5b5061033c600480360381019061033791906116ac565b61129f565b60405161034991906116f2565b60405180910390f35b61036c6004803603810190610367919061176d565b6112b7565b005b600073ffffffffffffffffffffffffffffffffffffffff168173ffffffffffffffffffffffffffffffffffffffff16036103dd576040517f08c379a00000000000000000000000000000000000000000000000000000000081526004016103d49061180a565b60405180910390fd5b60011515600460008373ffffffffffffffffffffffffffffffffffffffff1673ffffffffffffffffffffffffffffffffffffffff16815260200190815260200160002060009054906101000a900460ff16151514610470576040517f08c379a000000000000000000000000000000000000000000000000000000000815260040161046790611876565b60405180910390fd5b60001515600560008373ffffffffffffffffffffffffffffffffffffffff1673ffffffffffffffffffffffffffffffffffffffff16815260200190815260200160002060009054906101000a900460ff16151514610503576040517f08c379a00000000000000000000000000000000000000000000000000000000081526004016104fa906118e2565b60405180910390fd5b60003411610546576040517f08c379a000000000000000000000000000000000000000000000000000000000815260040161053d9061194e565b60405180910390fd5b34600260003373ffffffffffffffffffffffffffffffffffffffff1673ffffffffffffffffffffffffffffffffffffffff16815260200190815260200160002060008373ffffffffffffffffffffffffffffffffffffffff1673ffffffffffffffffffffffffffffffffffffffff16815260200190815260200160002060008282546105d2919061199d565b9250508190555034600360008373ffffffffffffffffffffffffffffffffffffffff1673ffffffffffffffffffffffffffffffffffffffff1681526020019081526020016000206000828254610628919061199d565b9250508190555034600760008373ffffffffffffffffffffffffffffffffffffffff1673ffffffffffffffffffffffffffffffffffffffff168152602001908152602001600020600082825461067e919061199d565b9250508190555050565b610690611551565b73ffffffffffffffffffffffffffffffffffffffff166106ae610d0d565b73ffffffffffffffffffffffffffffffffffffffff1614610704576040517f08c379a00000000000000000000000000000000000000000000000000000000081526004016106fb90611a3f565b60405180910390fd5b600073ffffffffffffffffffffffffffffffffffffffff168173ffffffffffffffffffffffffffffffffffffffff1603610773576040517f08c379a000000000000000000000000000000000000000000000000000000000815260040161076a90611aab565b60405180910390fd5b60001515600460008373ffffffffffffffffffffffffffffffffffffffff1673ffffffffffffffffffffffffffffffffffffffff16815260200190815260200160002060009054906101000a900460ff16151514610806576040517f08c379a00000000000000000000000000000000000000000000000000000000081526004016107fd90611b17565b60405180910390fd5b6001600460008373ffffffffffffffffffffffffffffffffffffffff1673ffffffffffffffffffffffffffffffffffffffff16815260200190815260200160002060006101000a81548160ff02191690831515021790555050565b610869611551565b73ffffffffffffffffffffffffffffffffffffffff16610887610d0d565b73ffffffffffffffffffffffffffffffffffffffff16146108dd576040517f08c379a00000000000000000000000000000000000000000000000000000000081526004016108d490611a3f565b60405180910390fd5b60001515600560008373ffffffffffffffffffffffffffffffffffffffff1673ffffffffffffffffffffffffffffffffffffffff16815260200190815260200160002060009054906101000a900460ff16151514610970576040517f08c379a000000000000000000000000000000000000000000000000000000000815260040161096790611b83565b60405180910390fd5b60001515600460008373ffffffffffffffffffffffffffffffffffffffff1673ffffffffffffffffffffffffffffffffffffffff16815260200190815260200160002060009054906101000a900460ff16151514610a03576040517f08c379a00000000000000000000000000000000000000000000000000000000081526004016109fa90611b17565b60405180910390fd5b60008190506000610aaa6064610a9c60058573ffffffffffffffffffffffffffffffffffffffff166370a08231306040518263ffffffff1660e01b8152600401610a4d919061171c565b602060405180830381865afa158015610a6a573d6000803e3d6000fd5b505050506040513d601f19601f82011682018060405250810190610a8e9190611bcf565b61155990919063ffffffff16565b61156f90919063ffffffff16565b90508173ffffffffffffffffffffffffffffffffffffffff1663a9059cbb600160009054906101000a900473ffffffffffffffffffffffffffffffffffffffff16836040518363ffffffff1660e01b8152600401610b09929190611c5b565b6020604051808303816000875af1158015610b28573d6000803e3d6000fd5b505050506040513d601f19601f82011682018060405250810190610b4c9190611cb0565b5060008273ffffffffffffffffffffffffffffffffffffffff166370a08231306040518263ffffffff1660e01b8152600401610b88919061171c565b602060405180830381865afa158015610ba5573d6000803e3d6000fd5b505050506040513d601f19601f82011682018060405250810190610bc99190611bcf565b905080600660008673ffffffffffffffffffffffffffffffffffffffff1673ffffffffffffffffffffffffffffffffffffffff168152602001908152602001600020819055506001600560008673ffffffffffffffffffffffffffffffffffffffff1673ffffffffffffffffffffffffffffffffffffffff16815260200190815260200160002060006101000a81548160ff02191690831515021790555050505050565b60066020528060005260406000206000915090505481565b610c8d611551565b73ffffffffffffffffffffffffffffffffffffffff16610cab610d0d565b73ffffffffffffffffffffffffffffffffffffffff1614610d01576040517f08c379a0000000000000000000000000000000000000000000000000000000008152600401610cf890611a3f565b60405180910390fd5b610d0b6000611585565b565b60008060009054906101000a900473ffffffffffffffffffffffffffffffffffffffff16905090565b60046020528060005260406000206000915054906101000a900460ff1681565b60036020528060005260406000206000915090505481565b60056020528060005260406000206000915054906101000a900460ff1681565b600073ffffffffffffffffffffffffffffffffffffffff168173ffffffffffffffffffffffffffffffffffffffff1603610dfd576040517f08c379a0000000000000000000000000000000000000000000000000000000008152600401610df490611d29565b60405180910390fd5b60011515600560008373ffffffffffffffffffffffffffffffffffffffff1673ffffffffffffffffffffffffffffffffffffffff16815260200190815260200160002060009054906101000a900460ff16151514610e90576040517f08c379a0000000000000000000000000000000000000000000000000000000008152600401610e8790611d95565b60405180910390fd5b6000600260003373ffffffffffffffffffffffffffffffffffffffff1673ffffffffffffffffffffffffffffffffffffffff16815260200190815260200160002060008373ffffffffffffffffffffffffffffffffffffffff1673ffffffffffffffffffffffffffffffffffffffff1681526020019081526020016000205411610f4f576040517f08c379a0000000000000000000000000000000000000000000000000000000008152600401610f4690611e01565b60405180910390fd5b6000600660008373ffffffffffffffffffffffffffffffffffffffff1673ffffffffffffffffffffffffffffffffffffffff1681526020019081526020016000205490506000611075600360008573ffffffffffffffffffffffffffffffffffffffff1673ffffffffffffffffffffffffffffffffffffffff16815260200190815260200160002054611067600260003373ffffffffffffffffffffffffffffffffffffffff1673ffffffffffffffffffffffffffffffffffffffff16815260200190815260200160002060008773ffffffffffffffffffffffffffffffffffffffff1673ffffffffffffffffffffffffffffffffffffffff168152602001908152602001600020548561155990919063ffffffff16565b61156f90919063ffffffff16565b90506000600260003373ffffffffffffffffffffffffffffffffffffffff1673ffffffffffffffffffffffffffffffffffffffff16815260200190815260200160002060008573ffffffffffffffffffffffffffffffffffffffff1673ffffffffffffffffffffffffffffffffffffffff1681526020019081526020016000208190555060008390508073ffffffffffffffffffffffffffffffffffffffff1663a9059cbb33846040518363ffffffff1660e01b8152600401611139929190611e21565b6020604051808303816000875af1158015611158573d6000803e3d6000fd5b505050506040513d601f19601f8201168201806040525081019061117c9190611cb0565b5050505050565b6002602052816000526040600020602052806000526040600020600091509150505481565b6111b0611551565b73ffffffffffffffffffffffffffffffffffffffff166111ce610d0d565b73ffffffffffffffffffffffffffffffffffffffff1614611224576040517f08c379a000000000000000000000000000000000000000000000000000000000815260040161121b90611a3f565b60405180910390fd5b600073ffffffffffffffffffffffffffffffffffffffff168173ffffffffffffffffffffffffffffffffffffffff1603611293576040517f08c379a000000000000000000000000000000000000000000000000000000000815260040161128a90611ebc565b60405180910390fd5b61129c81611585565b50565b60076020528060005260406000206000915090505481565b6112bf611551565b73ffffffffffffffffffffffffffffffffffffffff166112dd610d0d565b73ffffffffffffffffffffffffffffffffffffffff1614611333576040517f08c379a000000000000000000000000000000000000000000000000000000000815260040161132a90611a3f565b60405180910390fd5b600073ffffffffffffffffffffffffffffffffffffffff168173ffffffffffffffffffffffffffffffffffffffff16036113a2576040517f08c379a00000000000000000000000000000000000000000000000000000000081526004016113999061180a565b60405180910390fd5b6000600760008473ffffffffffffffffffffffffffffffffffffffff1673ffffffffffffffffffffffffffffffffffffffff1681526020019081526020016000205411611424576040517f08c379a000000000000000000000000000000000000000000000000000000000815260040161141b90611f4e565b60405180910390fd5b6000600760008473ffffffffffffffffffffffffffffffffffffffff1673ffffffffffffffffffffffffffffffffffffffff1681526020019081526020016000205490506000600760008573ffffffffffffffffffffffffffffffffffffffff1673ffffffffffffffffffffffffffffffffffffffff168152602001908152602001600020819055506000600460008573ffffffffffffffffffffffffffffffffffffffff1673ffffffffffffffffffffffffffffffffffffffff16815260200190815260200160002060006101000a81548160ff0219169083151502179055508173ffffffffffffffffffffffffffffffffffffffff166108fc829081150290604051600060405180830381858888f1935050505015801561154b573d6000803e3d6000fd5b50505050565b600033905090565b600081836115679190611f6e565b905092915050565b6000818361157d9190611ff7565b905092915050565b60008060009054906101000a900473ffffffffffffffffffffffffffffffffffffffff169050816000806101000a81548173ffffffffffffffffffffffffffffffffffffffff021916908373ffffffffffffffffffffffffffffffffffffffff1602179055508173ffffffffffffffffffffffffffffffffffffffff168173ffffffffffffffffffffffffffffffffffffffff167f8be0079c531659141344cd1fd0a4f28419497f9722a3daafe3b4186f6b6457e060405160405180910390a35050565b600080fd5b600073ffffffffffffffffffffffffffffffffffffffff82169050919050565b60006116798261164e565b9050919050565b6116898161166e565b811461169457600080fd5b50565b6000813590506116a681611680565b92915050565b6000602082840312156116c2576116c1611649565b5b60006116d084828501611697565b91505092915050565b6000819050919050565b6116ec816116d9565b82525050565b600060208201905061170760008301846116e3565b92915050565b6117168161166e565b82525050565b6000602082019050611731600083018461170d565b92915050565b60008115159050919050565b61174c81611737565b82525050565b60006020820190506117676000830184611743565b92915050565b6000806040838503121561178457611783611649565b5b600061179285828601611697565b92505060206117a385828601611697565b9150509250929050565b600082825260208201905092915050565b7f63616e6e6f7420696e7665737420696e206e756c6c2061646472657373000000600082015250565b60006117f4601d836117ad565b91506117ff826117be565b602082019050919050565b60006020820190508181036000830152611823816117e7565b9050919050565b7f746f6b656e206d757374206265206c6973746564000000000000000000000000600082015250565b60006118606014836117ad565b915061186b8261182a565b602082019050919050565b6000602082019050818103600083015261188f81611853565b9050919050565b7f746f6b656e206d7573742062652079657420756e636c61696d61626c65000000600082015250565b60006118cc601d836117ad565b91506118d782611896565b602082019050919050565b600060208201905081810360008301526118fb816118bf565b9050919050565b7f63616e6e6f7420696e76657374203020616d6f756e7400000000000000000000600082015250565b60006119386016836117ad565b915061194382611902565b602082019050919050565b600060208201905081810360008301526119678161192b565b9050919050565b7f4e487b7100000000000000000000000000000000000000000000000000000000600052601160045260246000fd5b60006119a8826116d9565b91506119b3836116d9565b9250827fffffffffffffffffffffffffffffffffffffffffffffffffffffffffffffffff038211156119e8576119e761196e565b5b828201905092915050565b7f4f776e61626c653a2063616c6c6572206973206e6f7420746865206f776e6572600082015250565b6000611a296020836117ad565b9150611a34826119f3565b602082019050919050565b60006020820190508181036000830152611a5881611a1c565b9050919050565b7f63616e6e6f74206c697374206e756c6c20616464726573730000000000000000600082015250565b6000611a956018836117ad565b9150611aa082611a5f565b602082019050919050565b60006020820190508181036000830152611ac481611a88565b9050919050565b7f74686520746f6b656e206d75737420626520756e6c6973746564000000000000600082015250565b6000611b01601a836117ad565b9150611b0c82611acb565b602082019050919050565b60006020820190508181036000830152611b3081611af4565b9050919050565b7f74686520746f6b656e206d75737420626520756e636c61696d61626c65000000600082015250565b6000611b6d601d836117ad565b9150611b7882611b37565b602082019050919050565b60006020820190508181036000830152611b9c81611b60565b9050919050565b611bac816116d9565b8114611bb757600080fd5b50565b600081519050611bc981611ba3565b92915050565b600060208284031215611be557611be4611649565b5b6000611bf384828501611bba565b91505092915050565b6000819050919050565b6000611c21611c1c611c178461164e565b611bfc565b61164e565b9050919050565b6000611c3382611c06565b9050919050565b6000611c4582611c28565b9050919050565b611c5581611c3a565b82525050565b6000604082019050611c706000830185611c4c565b611c7d60208301846116e3565b9392505050565b611c8d81611737565b8114611c9857600080fd5b50565b600081519050611caa81611c84565b92915050565b600060208284031215611cc657611cc5611649565b5b6000611cd484828501611c9b565b91505092915050565b7f63616e6e6f7420636c61696d206e756c6c206164647265737300000000000000600082015250565b6000611d136019836117ad565b9150611d1e82611cdd565b602082019050919050565b60006020820190508181036000830152611d4281611d06565b9050919050565b7f746f6b656e206d75737420626520636c61696d61626c65000000000000000000600082015250565b6000611d7f6017836117ad565b9150611d8a82611d49565b602082019050919050565b60006020820190508181036000830152611dae81611d72565b9050919050565b7f75736572206d75737420686176652066756e647320746f20636c61696d000000600082015250565b6000611deb601d836117ad565b9150611df682611db5565b602082019050919050565b60006020820190508181036000830152611e1a81611dde565b9050919050565b6000604082019050611e36600083018561170d565b611e4360208301846116e3565b9392505050565b7f4f776e61626c653a206e6577206f776e657220697320746865207a65726f206160008201527f6464726573730000000000000000000000000000000000000000000000000000602082015250565b6000611ea66026836117ad565b9150611eb182611e4a565b604082019050919050565b60006020820190508181036000830152611ed581611e99565b9050919050565b7f63616e6e6f74206578656375746520696e766573746d656e742077697468203060008201527f20616d6f756e7400000000000000000000000000000000000000000000000000602082015250565b6000611f386027836117ad565b9150611f4382611edc565b604082019050919050565b60006020820190508181036000830152611f6781611f2b565b9050919050565b6000611f79826116d9565b9150611f84836116d9565b9250817fffffffffffffffffffffffffffffffffffffffffffffffffffffffffffffffff0483118215151615611fbd57611fbc61196e565b5b828202905092915050565b7f4e487b7100000000000000000000000000000000000000000000000000000000600052601260045260246000fd5b6000612002826116d9565b915061200d836116d9565b92508261201d5761201c611fc8565b5b82820490509291505056fea2646970667358221220d46ab343feda0232f84b898910f30e5e75615c02d729bbb62f273b71ee20ab1664736f6c634300080d0033",
  "immutableReferences": {},
  "source": "// SPDX-License-Identifier: MIT\r\npragma solidity ^0.8.0;\r\n\r\nimport \"@openzeppelin/contracts/token/ERC20/IERC20.sol\";\r\nimport \"@openzeppelin/contracts/access/Ownable.sol\";\r\nimport \"@openzeppelin/contracts/utils/math/SafeMath.sol\";\r\n\r\ncontract DAOCOPY is Ownable {\r\n  using SafeMath for uint;\r\n\r\n  // Variables  \r\n  address payable treasury;\r\n  mapping (address => mapping(address => uint256)) public userInvestment;\r\n  mapping (address => uint256) public totalInvestment;\r\n  mapping (address => bool) public tokenIsListed;\r\n  mapping (address => bool) public tokenIsClaimable;\r\n  mapping (address => uint) public amountToDistribute;\r\n  mapping (address => uint) public investmentToExecute;  \r\n\r\n  constructor(address payable _treasury) {\r\n    treasury = _treasury;\r\n  } \r\n\r\n  /**\r\n   * @dev invest in one of the listed tokens in the DAO\r\n   * @param token: address of the token to invest\r\n   */\r\n  function invest(address token) payable public {\r\n    require(token != address(0), \"cannot invest in null address\");\r\n    require(tokenIsListed[token] == true, \"token must be listed\");\r\n    require(tokenIsClaimable[token] == false, \"token must be yet unclaimable\");\r\n    require(msg.value > 0, \"cannot invest 0 amount\");\r\n    userInvestment[msg.sender][token] += msg.value;\r\n    totalInvestment[token] += msg.value;\r\n    investmentToExecute[token] += msg.value;\r\n  }\r\n\r\n  /**\r\n   * @dev users claim their tokens where they invested\r\n   * @param token: address of the token to be claimed\r\n   */\r\n  function claimTokens(address token) public {\r\n    require(token != address(0), \"cannot claim null address\");\r\n    require(tokenIsClaimable[token] == true, \"token must be claimable\");\r\n    require(userInvestment[msg.sender][token] > 0, \"user must have funds to claim\");    \r\n    uint fundsToDistribute = amountToDistribute[token];\r\n    uint amount = fundsToDistribute.mul(userInvestment[msg.sender][token]).div(totalInvestment[token]);\r\n    userInvestment[msg.sender][token] = 0;\r\n    IERC20 tokenInstance = IERC20(token);\r\n    tokenInstance.transfer(msg.sender, amount);\r\n  }\r\n\r\n  /**\r\n   * @dev admin will execute this function once the DAO receive the tokens\r\n   * @param token: address of the token received by the DAO\r\n   */\r\n  function listToken(address token) public onlyOwner {\r\n    require(token != address(0), \"cannot list null address\");\r\n    require(tokenIsListed[token] == false, \"the token must be unlisted\");\r\n    tokenIsListed[token] = true;\r\n  }\r\n\r\n  /**\r\n   * @dev admin to send all the funds for specific project to the project address\r\n   * @param token: address of the token to execute investment\r\n   * @param to: address of the project admin which will receive DAO's funds\r\n   */\r\n  function executeInvestment(address token, address to) public payable onlyOwner {\r\n    require(to != address(0), \"cannot invest in null address\");\r\n    require(investmentToExecute[token] > 0, \"cannot execute investment with 0 amount\");\r\n    uint amount = investmentToExecute[token];\r\n    investmentToExecute[token] = 0;\r\n    tokenIsListed[token] = false;\r\n    payable(to).transfer(amount);\r\n  }\r\n\r\n  /**\r\n   * @dev admin will execute this function once the DAO receive the tokens\r\n   * @param token: address of the token received by the DAO\r\n   */\r\n  function makeTokenClaimable(address token) public onlyOwner {\r\n    require(tokenIsClaimable[token] == false, \"the token must be unclaimable\");\r\n    require(tokenIsListed[token] == false, \"the token must be unlisted\");\r\n    IERC20 tokenInstance = IERC20(token);\r\n    // 5% of the tokens go to the treasury\r\n    uint treasuryAmount = tokenInstance.balanceOf(address(this)).mul(5).div(100);\r\n    tokenInstance.transfer(treasury, treasuryAmount);\r\n    uint funds = tokenInstance.balanceOf(address(this));\r\n    amountToDistribute[token] = funds;\r\n    tokenIsClaimable[token] = true;\r\n  }\r\n}",
  "sourcePath": "/mnt/c/Users/Lenovo/Desktop/Code/Hackathon/src/contracts/DAO copy.sol",
  "compiler": {
    "name": "solc",
    "version": "0.8.13+commit.abaa5c0e.Emscripten.clang"
  },
  "schemaVersion": "3.4.3",
  "updatedAt": "2022-03-26T17:04:13.196Z",
  "devdoc": {
    "kind": "dev",
    "methods": {
      "claimTokens(address)": {
        "details": "users claim their tokens where they invested",
        "params": {
          "token": ": address of the token to be claimed"
        }
      },
      "executeInvestment(address,address)": {
        "details": "admin to send all the funds for specific project to the project address",
        "params": {
          "to": ": address of the project admin which will receive DAO's funds",
          "token": ": address of the token to execute investment"
        }
      },
      "invest(address)": {
        "details": "invest in one of the listed tokens in the DAO",
        "params": {
          "token": ": address of the token to invest"
        }
      },
      "listToken(address)": {
        "details": "admin will execute this function once the DAO receive the tokens",
        "params": {
          "token": ": address of the token received by the DAO"
        }
      },
      "makeTokenClaimable(address)": {
        "details": "admin will execute this function once the DAO receive the tokens",
        "params": {
          "token": ": address of the token received by the DAO"
        }
      },
      "owner()": {
        "details": "Returns the address of the current owner."
      },
      "renounceOwnership()": {
        "details": "Leaves the contract without owner. It will not be possible to call `onlyOwner` functions anymore. Can only be called by the current owner. NOTE: Renouncing ownership will leave the contract without an owner, thereby removing any functionality that is only available to the owner."
      },
      "transferOwnership(address)": {
        "details": "Transfers ownership of the contract to a new account (`newOwner`). Can only be called by the current owner."
      }
    },
    "version": 1
  },
  "userdoc": {
    "kind": "user",
    "methods": {},
    "version": 1
  }
}